{
  "_format": "hh-sol-artifact-1",
  "contractName": "SC",
  "sourceName": "contracts/SC.sol",
  "abi": [
    {
      "inputs": [],
      "stateMutability": "nonpayable",
      "type": "constructor"
    },
    {
      "anonymous": false,
      "inputs": [
        {
          "indexed": false,
          "internalType": "string",
          "name": "name",
          "type": "string"
        },
        {
          "indexed": false,
          "internalType": "uint256",
          "name": "cost",
          "type": "uint256"
        },
        {
          "indexed": false,
          "internalType": "uint256",
          "name": "quantity",
          "type": "uint256"
        }
      ],
      "name": "List",
      "type": "event"
    },
    {
      "inputs": [
        {
          "internalType": "uint256",
          "name": "_id",
          "type": "uint256"
        }
      ],
      "name": "buy",
      "outputs": [],
      "stateMutability": "payable",
      "type": "function"
    },
    {
      "inputs": [
        {
          "internalType": "uint256",
          "name": "",
          "type": "uint256"
        }
      ],
      "name": "items",
      "outputs": [
        {
          "internalType": "uint256",
          "name": "id",
          "type": "uint256"
        },
        {
          "internalType": "string",
          "name": "name",
          "type": "string"
        },
        {
          "internalType": "string",
          "name": "category",
          "type": "string"
        },
        {
          "internalType": "string",
          "name": "image",
          "type": "string"
        },
        {
          "internalType": "uint256",
          "name": "cost",
          "type": "uint256"
        },
        {
          "internalType": "uint256",
          "name": "rating",
          "type": "uint256"
        },
        {
          "internalType": "uint256",
          "name": "stock",
          "type": "uint256"
        }
      ],
      "stateMutability": "view",
      "type": "function"
    },
    {
      "inputs": [
        {
          "internalType": "uint256",
          "name": "_id",
          "type": "uint256"
        },
        {
          "internalType": "string",
          "name": "_name",
          "type": "string"
        },
        {
          "internalType": "string",
          "name": "_category",
          "type": "string"
        },
        {
          "internalType": "string",
          "name": "_image",
          "type": "string"
        },
        {
          "internalType": "uint256",
          "name": "_cost",
          "type": "uint256"
        },
        {
          "internalType": "uint256",
          "name": "_rating",
          "type": "uint256"
        },
        {
          "internalType": "uint256",
          "name": "_stock",
          "type": "uint256"
        }
      ],
      "name": "list",
      "outputs": [],
      "stateMutability": "nonpayable",
      "type": "function"
    },
    {
      "inputs": [
        {
          "internalType": "address",
          "name": "",
          "type": "address"
        }
      ],
      "name": "orderCount",
      "outputs": [
        {
          "internalType": "uint256",
          "name": "",
          "type": "uint256"
        }
      ],
      "stateMutability": "view",
      "type": "function"
    },
    {
      "inputs": [
        {
          "internalType": "address",
          "name": "",
          "type": "address"
        },
        {
          "internalType": "uint256",
          "name": "",
          "type": "uint256"
        }
      ],
      "name": "orders",
      "outputs": [
        {
          "internalType": "uint256",
          "name": "time",
          "type": "uint256"
        },
        {
          "components": [
            {
              "internalType": "uint256",
              "name": "id",
              "type": "uint256"
            },
            {
              "internalType": "string",
              "name": "name",
              "type": "string"
            },
            {
              "internalType": "string",
              "name": "category",
              "type": "string"
            },
            {
              "internalType": "string",
              "name": "image",
              "type": "string"
            },
            {
              "internalType": "uint256",
              "name": "cost",
              "type": "uint256"
            },
            {
              "internalType": "uint256",
              "name": "rating",
              "type": "uint256"
            },
            {
              "internalType": "uint256",
              "name": "stock",
              "type": "uint256"
            }
          ],
          "internalType": "struct SC.Item",
          "name": "item",
          "type": "tuple"
        }
      ],
      "stateMutability": "view",
      "type": "function"
    },
    {
      "inputs": [],
      "name": "owner",
      "outputs": [
        {
          "internalType": "address",
          "name": "",
          "type": "address"
        }
      ],
      "stateMutability": "view",
      "type": "function"
    }
  ],
  "bytecode": "0x608060405234801561001057600080fd5b50336000806101000a81548173ffffffffffffffffffffffffffffffffffffffff021916908373ffffffffffffffffffffffffffffffffffffffff1602179055506114b7806100606000396000f3fe6080604052600436106100555760003560e01c8063713d856b1461005a578063793b8c6d146100975780638da5cb5b146100d5578063bfb231d214610100578063d96a094a14610143578063eea8a7e81461015f575b600080fd5b34801561006657600080fd5b50610081600480360381019061007c9190610b2f565b610188565b60405161008e9190610b75565b60405180910390f35b3480156100a357600080fd5b506100be60048036038101906100b99190610bbc565b6101a0565b6040516100cc929190610d45565b60405180910390f35b3480156100e157600080fd5b506100ea6103b9565b6040516100f79190610d84565b60405180910390f35b34801561010c57600080fd5b5061012760048036038101906101229190610d9f565b6103dd565b60405161013a9796959493929190610e16565b60405180910390f35b61015d60048036038101906101589190610d9f565b6105b7565b005b34801561016b57600080fd5b5061018660048036038101906101819190610fcf565b610968565b005b60026020528060005260406000206000915090505481565b600360205281600052604060002060205280600052604060002060009150915050806000015490806001016040518060e0016040529081600082015481526020016001820180546101f0906110f4565b80601f016020809104026020016040519081016040528092919081815260200182805461021c906110f4565b80156102695780601f1061023e57610100808354040283529160200191610269565b820191906000526020600020905b81548152906001019060200180831161024c57829003601f168201915b50505050508152602001600282018054610282906110f4565b80601f01602080910402602001604051908101604052809291908181526020018280546102ae906110f4565b80156102fb5780601f106102d0576101008083540402835291602001916102fb565b820191906000526020600020905b8154815290600101906020018083116102de57829003601f168201915b50505050508152602001600382018054610314906110f4565b80601f0160208091040260200160405190810160405280929190818152602001828054610340906110f4565b801561038d5780601f106103625761010080835404028352916020019161038d565b820191906000526020600020905b81548152906001019060200180831161037057829003601f168201915b505050505081526020016004820154815260200160058201548152602001600682015481525050905082565b60008054906101000a900473ffffffffffffffffffffffffffffffffffffffff1681565b6001602052806000526040600020600091509050806000015490806001018054610406906110f4565b80601f0160208091040260200160405190810160405280929190818152602001828054610432906110f4565b801561047f5780601f106104545761010080835404028352916020019161047f565b820191906000526020600020905b81548152906001019060200180831161046257829003601f168201915b505050505090806002018054610494906110f4565b80601f01602080910402602001604051908101604052809291908181526020018280546104c0906110f4565b801561050d5780601f106104e25761010080835404028352916020019161050d565b820191906000526020600020905b8154815290600101906020018083116104f057829003601f168201915b505050505090806003018054610522906110f4565b80601f016020809104026020016040519081016040528092919081815260200182805461054e906110f4565b801561059b5780601f106105705761010080835404028352916020019161059b565b820191906000526020600020905b81548152906001019060200180831161057e57829003601f168201915b5050505050908060040154908060050154908060060154905087565b6000600160008381526020019081526020016000206040518060e0016040529081600082015481526020016001820180546105f1906110f4565b80601f016020809104026020016040519081016040528092919081815260200182805461061d906110f4565b801561066a5780601f1061063f5761010080835404028352916020019161066a565b820191906000526020600020905b81548152906001019060200180831161064d57829003601f168201915b50505050508152602001600282018054610683906110f4565b80601f01602080910402602001604051908101604052809291908181526020018280546106af906110f4565b80156106fc5780601f106106d1576101008083540402835291602001916106fc565b820191906000526020600020905b8154815290600101906020018083116106df57829003601f168201915b50505050508152602001600382018054610715906110f4565b80601f0160208091040260200160405190810160405280929190818152602001828054610741906110f4565b801561078e5780601f106107635761010080835404028352916020019161078e565b820191906000526020600020905b81548152906001019060200180831161077157829003601f168201915b505050505081526020016004820154815260200160058201548152602001600682015481525050905060006040518060400160405280428152602001838152509050600260003373ffffffffffffffffffffffffffffffffffffffff1673ffffffffffffffffffffffffffffffffffffffff168152602001908152602001600020600081548092919061082090611154565b919050555080600360003373ffffffffffffffffffffffffffffffffffffffff1673ffffffffffffffffffffffffffffffffffffffff1681526020019081526020016000206000600260003373ffffffffffffffffffffffffffffffffffffffff1673ffffffffffffffffffffffffffffffffffffffff168152602001908152602001600020548152602001908152602001600020600082015181600001556020820151816001016000820151816000015560208201518160010190816108e79190611348565b5060408201518160020190816108fd9190611348565b5060608201518160030190816109139190611348565b506080820151816004015560a0820151816005015560c08201518160060155505090505060016000848152602001908152602001600020600601600081548092919061095e9061141a565b9190505550505050565b60008054906101000a900473ffffffffffffffffffffffffffffffffffffffff1673ffffffffffffffffffffffffffffffffffffffff163373ffffffffffffffffffffffffffffffffffffffff16146109c057600080fd5b60006040518060e0016040528089815260200188815260200187815260200186815260200185815260200184815260200183815250905080600160008a8152602001908152602001600020600082015181600001556020820151816001019081610a2a9190611348565b506040820151816002019081610a409190611348565b506060820151816003019081610a569190611348565b506080820151816004015560a0820151816005015560c082015181600601559050507ffdbe2a012c10ec01592653978eaa09b5ca60b143a0e617505b2ebcbd911ec5b8878584604051610aab93929190611443565b60405180910390a15050505050505050565b6000604051905090565b600080fd5b600080fd5b600073ffffffffffffffffffffffffffffffffffffffff82169050919050565b6000610afc82610ad1565b9050919050565b610b0c81610af1565b8114610b1757600080fd5b50565b600081359050610b2981610b03565b92915050565b600060208284031215610b4557610b44610ac7565b5b6000610b5384828501610b1a565b91505092915050565b6000819050919050565b610b6f81610b5c565b82525050565b6000602082019050610b8a6000830184610b66565b92915050565b610b9981610b5c565b8114610ba457600080fd5b50565b600081359050610bb681610b90565b92915050565b60008060408385031215610bd357610bd2610ac7565b5b6000610be185828601610b1a565b9250506020610bf285828601610ba7565b9150509250929050565b610c0581610b5c565b82525050565b600081519050919050565b600082825260208201905092915050565b60005b83811015610c45578082015181840152602081019050610c2a565b60008484015250505050565b6000601f19601f8301169050919050565b6000610c6d82610c0b565b610c778185610c16565b9350610c87818560208601610c27565b610c9081610c51565b840191505092915050565b600060e083016000830151610cb36000860182610bfc565b5060208301518482036020860152610ccb8282610c62565b91505060408301518482036040860152610ce58282610c62565b91505060608301518482036060860152610cff8282610c62565b9150506080830151610d146080860182610bfc565b5060a0830151610d2760a0860182610bfc565b5060c0830151610d3a60c0860182610bfc565b508091505092915050565b6000604082019050610d5a6000830185610b66565b8181036020830152610d6c8184610c9b565b90509392505050565b610d7e81610af1565b82525050565b6000602082019050610d996000830184610d75565b92915050565b600060208284031215610db557610db4610ac7565b5b6000610dc384828501610ba7565b91505092915050565b600082825260208201905092915050565b6000610de882610c0b565b610df28185610dcc565b9350610e02818560208601610c27565b610e0b81610c51565b840191505092915050565b600060e082019050610e2b600083018a610b66565b8181036020830152610e3d8189610ddd565b90508181036040830152610e518188610ddd565b90508181036060830152610e658187610ddd565b9050610e746080830186610b66565b610e8160a0830185610b66565b610e8e60c0830184610b66565b98975050505050505050565b600080fd5b600080fd5b7f4e487b7100000000000000000000000000000000000000000000000000000000600052604160045260246000fd5b610edc82610c51565b810181811067ffffffffffffffff82111715610efb57610efa610ea4565b5b80604052505050565b6000610f0e610abd565b9050610f1a8282610ed3565b919050565b600067ffffffffffffffff821115610f3a57610f39610ea4565b5b610f4382610c51565b9050602081019050919050565b82818337600083830152505050565b6000610f72610f6d84610f1f565b610f04565b905082815260208101848484011115610f8e57610f8d610e9f565b5b610f99848285610f50565b509392505050565b600082601f830112610fb657610fb5610e9a565b5b8135610fc6848260208601610f5f565b91505092915050565b600080600080600080600060e0888a031215610fee57610fed610ac7565b5b6000610ffc8a828b01610ba7565b975050602088013567ffffffffffffffff81111561101d5761101c610acc565b5b6110298a828b01610fa1565b965050604088013567ffffffffffffffff81111561104a57611049610acc565b5b6110568a828b01610fa1565b955050606088013567ffffffffffffffff81111561107757611076610acc565b5b6110838a828b01610fa1565b94505060806110948a828b01610ba7565b93505060a06110a58a828b01610ba7565b92505060c06110b68a828b01610ba7565b91505092959891949750929550565b7f4e487b7100000000000000000000000000000000000000000000000000000000600052602260045260246000fd5b6000600282049050600182168061110c57607f821691505b60208210810361111f5761111e6110c5565b5b50919050565b7f4e487b7100000000000000000000000000000000000000000000000000000000600052601160045260246000fd5b600061115f82610b5c565b91507fffffffffffffffffffffffffffffffffffffffffffffffffffffffffffffffff820361119157611190611125565b5b600182019050919050565b60008190508160005260206000209050919050565b60006020601f8301049050919050565b600082821b905092915050565b6000600883026111fe7fffffffffffffffffffffffffffffffffffffffffffffffffffffffffffffffff826111c1565b61120886836111c1565b95508019841693508086168417925050509392505050565b6000819050919050565b600061124561124061123b84610b5c565b611220565b610b5c565b9050919050565b6000819050919050565b61125f8361122a565b61127361126b8261124c565b8484546111ce565b825550505050565b600090565b61128861127b565b611293818484611256565b505050565b5b818110156112b7576112ac600082611280565b600181019050611299565b5050565b601f8211156112fc576112cd8161119c565b6112d6846111b1565b810160208510156112e5578190505b6112f96112f1856111b1565b830182611298565b50505b505050565b600082821c905092915050565b600061131f60001984600802611301565b1980831691505092915050565b6000611338838361130e565b9150826002028217905092915050565b61135182610c0b565b67ffffffffffffffff81111561136a57611369610ea4565b5b61137482546110f4565b61137f8282856112bb565b600060209050601f8311600181146113b257600084156113a0578287015190505b6113aa858261132c565b865550611412565b601f1984166113c08661119c565b60005b828110156113e8578489015182556001820191506020850194506020810190506113c3565b868310156114055784890151611401601f89168261130e565b8355505b6001600288020188555050505b505050505050565b600061142582610b5c565b91506000820361143857611437611125565b5b600182039050919050565b6000606082019050818103600083015261145d8186610ddd565b905061146c6020830185610b66565b6114796040830184610b66565b94935050505056fea2646970667358221220ad2ef536449552d1ba29d8ea3cea9e250ecc28211ee5ed38081d775f9a44e1c764736f6c63430008180033",
  "linkReferences": {},
  "deployedLinkReferences": {}
}